{
  "contractName": "Migrations",
  "abi": [
    {
      "constant": true,
      "inputs": [],
      "name": "name",
      "outputs": [
        {
          "internalType": "string",
          "name": "",
          "type": "string"
        }
      ],
      "payable": false,
      "stateMutability": "view",
      "type": "function"
    },
    {
      "constant": false,
      "inputs": [
        {
          "internalType": "string",
          "name": "_name",
          "type": "string"
        }
      ],
      "name": "setName",
      "outputs": [],
      "payable": false,
      "stateMutability": "nonpayable",
      "type": "function"
    },
    {
      "constant": false,
      "inputs": [],
      "name": "Hello",
      "outputs": [
        {
          "internalType": "string",
          "name": "",
          "type": "string"
        }
      ],
      "payable": false,
      "stateMutability": "nonpayable",
      "type": "function"
    }
  ],
  "bytecode": "0x608060405234801561001057600080fd5b5061043c806100206000396000f3fe608060405234801561001057600080fd5b50600436106100415760003560e01c806306fdde0314610046578063bcdfe0d5146100c9578063c47f00271461014c575b600080fd5b61004e610207565b6040518080602001828103825283818151815260200191508051906020019080838360005b8381101561008e578082015181840152602081019050610073565b50505050905090810190601f1680156100bb5780820380516001836020036101000a031916815260200191505b509250505060405180910390f35b6100d16102a5565b6040518080602001828103825283818151815260200191508051906020019080838360005b838110156101115780820151818401526020810190506100f6565b50505050905090810190601f16801561013e5780820380516001836020036101000a031916815260200191505b509250505060405180910390f35b6102056004803603602081101561016257600080fd5b810190808035906020019064010000000081111561017f57600080fd5b82018360208201111561019157600080fd5b803590602001918460018302840111640100000000831117156101b357600080fd5b91908080601f016020809104026020016040519081016040528093929190818152602001838380828437600081840152601f19601f820116905080830192505050505050509192919290505050610348565b005b60008054600181600116156101000203166002900480601f01602080910402602001604051908101604052809291908181526020018280546001816001161561010002031660029004801561029d5780601f106102725761010080835404028352916020019161029d565b820191906000526020600020905b81548152906001019060200180831161028057829003601f168201915b505050505081565b6060600060405160200180807f48656c6c6f0000000000000000000000000000000000000000000000000000008152506005018280546001816001161561010002031660029004801561032f5780601f1061030d57610100808354040283529182019161032f565b820191906000526020600020905b81548152906001019060200180831161031b575b5050915050604051602081830303815290604052905090565b806000908051906020019061035e929190610362565b5050565b828054600181600116156101000203166002900490600052602060002090601f016020900481019282601f106103a357805160ff19168380011785556103d1565b828001600101855582156103d1579182015b828111156103d05782518255916020019190600101906103b5565b5b5090506103de91906103e2565b5090565b61040491905b808211156104005760008160009055506001016103e8565b5090565b9056fea265627a7a72315820acbb78ca345936a614fe04eaac21052d2ba2234afc49e4a72670989cd4ee53bc64736f6c63430005100032",
  "source": "// SPDX-License-Identifier: MIT\npragma solidity >=0.4.22 <0.9.0;\n\ncontract Migrations {\n  string public name;\n  function setName(string memory _name) public {\n    name = _name; \n  }\n\n  function Hello() public returns(string memory)\n  {\n    return string(abi.encodePacked(\"Hello\", name));\n  }\n  \n}\n",
  "sourcePath": "C:\\Users\\QUANG\\Desktop\\Demo\\contracts\\Migrations.sol",
  "compiler": {
    "name": "solc",
    "version": "0.5.16+commit.9c3226ce.Emscripten.clang"
  },
  "schemaVersion": "3.4.2",
  "updatedAt": "2021-08-03T13:50:12.692Z",
  "networkType": "ethereum",
  "devdoc": {
    "methods": {}
  },
  "userdoc": {
    "methods": {}
  }
}